:100000000C9442050C946A050C946A050C946A05DC
:100010000C946A050C946A050C946A050C946A05A4
:100020000C946A050C946A050C946A050C946A0594
:100030000C946A050C946A050C946A050C946A0584
:100040000C9485120C946A050C946A050C946A054C
:100050000C946A050C946A050C946A050C946A0564
:100060000C94CF120C946A0500000000003E5B4F18
:100070005B3E3E6B4F6B3E1C3E7C3E1C183C7E3C08
:10008000181C577D571C1C5E7F5E1C00183C180016
:10009000FFE7C3E7FF0018241800FFE7DBE7FF30A6
:1000A000483A060E2629792926407F050507407F14
:1000B00005253F5A3CE73C5A7F3E1C1C08081C1C87
:1000C0003E7F14227F22145F5F005F5F06097F017D
:1000D0007F006689956A606060606094A2FFA29468
:1000E00008047E040810207E201008082A1C080836
:1000F0001C2A08081E101010100C1E0C1E0C303884
:100100003E3830060E3E0E06000000000000005F84
:1001100000000007000700147F147F14242A7F2AA0
:100120001223130864623649562050000807030062
:10013000001C2241000041221C002A1C7F1C2A08AE
:10014000083E080800807030000808080808000011
:1001500060600020100804023E5149453E00427F85
:10016000400072494949462141494D331814127FD4
:100170001027454545393C4A494931412111090774
:100180003649494936464949291E000014000000F5
:1001900040340000000814224114141414140041C7
:1001A00022140802015909063E415D594E7C121184
:1001B000127C7F494949363E414141227F414141BC
:1001C0003E7F494949417F090909013E4141517337
:1001D0007F0808087F00417F41002040413F017FA8
:1001E000081422417F404040407F021C027F7F0470
:1001F00008107F3E4141413E7F090909063E4151B9
:10020000215E7F09192946264949493203017F01A8
:10021000033F4040403F1F2040201F3F4038403FA9
:10022000631408146303047804036159494D4300BF
:100230007F4141410204081020004141417F0402F6
:10024000010204404040404000030708002054548D
:1002500078407F284444383844444428384444286B
:100260007F385454541800087E090218A4A49C78BE
:100270007F0804047800447D40002040403D007F1A
:100280001028440000417F40007C047804787C08FA
:100290000404783844444438FC18242418182424CE
:1002A00018FC7C08040408485454542404043F44B3
:1002B000243C4040207C1C2040201C3C4030403CE2
:1002C00044281028444C9090907C4464544C440042
:1002D00008364100000077000000413608000201A6
:1002E0000204023C2623263C1EA1A161123A404092
:1002F000207A38545455592155557941225454780F
:1003000042215554784020545579400C1E527212A7
:100310003955555559395454545939555454580030
:1003200000457C410002457D420001457C407D1234
:1003300011127DF0282528F07C5455450020545496
:100340007C547C0A097F4932494949323A44444441
:100350003A324A4848303A4141217A3A424020787C
:10036000009DA0A07D3D4242423D3D4040403D3C7D
:1003700024FF2424487E4943662B2FFC2F2BFF09A2
:1003800029F620C0887E0903205454794100004496
:100390007D413048484A32384040227A007A0A0A81
:1003A000727D0D19317D2629292F282629292926F4
:1003B00030484D4020380808080808080808382F39
:1003C00010C8ACBA2F102834FA00007B00000814C3
:1003D0002A142222142A14085500550055AA55AA99
:1003E00055AAFF55FF55FF000000FF00101010FF39
:1003F00000141414FF001010FF00FF1010F010F094
:10040000141414FC001414F700FF0000FF00FF1484
:1004100014F404FC141417101F10101F101F1414D0
:10042000141F00101010F0000000001F101010101A
:100430001F10101010F010000000FF10101010100E
:1004400010101010FF10000000FF140000FF00FF4C
:1004500000001F10170000FC04F4141417101714E8
:1004600014F404F40000FF00F7141414141414140A
:10047000F700F7141414171410101F101F1414147D
:10048000F4141010F010F000001F101F0000001FE7
:1004900014000000FC140000F010F01010FF10FF1A
:1004A000141414FF141010101F00000000F010FFAF
:1004B000FFFFFFFFF0F0F0F0F0FFFFFF0000000093
:1004C00000FFFF0F0F0F0F0F3844443844FC4A4A17
:1004D0004A347E02020606027E027E0263554941CC
:1004E000633844443C04407E201E2006027E020203
:1004F00099A5E7A5991C2A492A1C4C7201724C3017
:100500004A4D4D303048784830BC625A463D3E49ED
:100510004949007E0101017E2A2A2A2A2A44445F91
:10052000444440514A444040444A51400000FF0185
:1005300003E080FF000008086B6B08361236243693
:10054000060F090F060000181800000010100030F8
:1005500040FF0101001F01011E00191D1712003C80
:100560003C3C3C0000000000000103070F1F3F7FE0
:100570000080C0E0F0F8FCFE00000008000201006E
:10058000000304070000000000000000DB40A4A6F8
:100590002EAF2000A1C8D300408DAED580A80000AA
:1005A000600000000000000000000000000000E00B
:1005B0000000000000000000000000000001E0005A
:1005C00000000000000000000000000001F000003A
:1005D000000000000000000000000003F000000028
:1005E0000000000000000000000007F00000000014
:1005F00000000000000000000007F80000000000FC
:1006000000000000000000000FF800000003C00020
:100610007E000001E0007F0FF800000003C000FE34
:10062000000001E000FFEFF800000003C000FE0042
:100630000001E000FFFFF800000003C000F0000030
:10064000000F007FFE7FC0000003C000F00000002C
:100650000F003FFE7FF83FF1FBCFFCFEF3BC3DEF08
:10066000E01FFE7FFF7FFBFFDFFEFEFFBC3DEFE0F4
:100670001FC6FFFF7FFBFFDFFEFEFFBC3DEFE00F6D
:10068000E3C7FE787BC3DE1EF0FFBC3DEF0007FF33
:1006900087FC787BC3DE1EF0F83C3DEF0001FFFFD6
:1006A000F0007BC3C01EF0F03C3DEF0001F37FE0A3
:1006B0003FFBC3CFFEF0F03C3DEF0003E33F807F04
:1006C000FBC3DFFEF0F03C3DEF0007E73C00787B2A
:1006D000C3DE1EF0F03C3DEF0007FFBE00787BC399
:1006E000DE1EF0F03C3DEF0007FFFE00787BC3DE2E
:1006F0001EF0F03C3DEF000FFFFE007FFBFFDFFE32
:10070000F0F03FFDEFE00FFFFF007FFBFFDFFEF0AB
:10071000F03FFDEFE00FF9FF003E79F9CF9EF0F0DA
:100720001F3DE7E01FF1FF00000000000000000097
:100730000000001F80FF007FFFFFFFFFFFFFFFFFA4
:10074000FFE01C007F007FFFFFFFFEB46D888D1867
:10075000E000001F007FFFFFFFFE95AD7DB577E055
:1007600000000F007FFFFFFFFEA5AD9D8D19E0008B
:100770000006007FFFFFFFFEB5ADEDB57EE0000097
:100780000000000180000000000000000000038065
:1007900000000000000000000007C0000000000092
:1007A0000000000007C00000000000000000000F73
:1007B000C00000000000000000001FE0000000007A
:1007C00000000000001FE00000000000000000002A
:1007D0003FE00000000000000000003FF0000000CB
:1007E0000000000000007FF0000000000000001F7B
:1007F000F87FF0000000000000003FFE7FF00000E6
:1008000000000000003FFF7FF0000000000000003B
:100810001FFFFBE0000000000000000FFFF9FFC019
:100820000000000000000FFFF9FFF80000000000CA
:100830000007FFF1FFFF00000000000003FC73FF52
:10084000FF80000000000001FE3FFFFF800000006D
:10085000000000FF1E0FFF000000000000007FFEF0
:100860001FFC000000000000003FFFFFF800000038
:10087000000000000FDFFFE0000000000000001F8C
:1008800019FFC0000000000000003F3CFF00000016
:1008900000000000007E7CF8000000000000000066
:1008A0007FFE7C0000000000000000FFFFFC000055
:1008B000000000000000FFFFFE000000000000003C
:1008C00000FFFFFE0000000000000001FFEFFE003F
:1008D00000000000000001FFCFFE0000000000004B
:1008E0000003FF07FE0000000000000003FC07FEFD
:1008F0000000000000000003F003FE000000000004
:100900000000018000FE0000000000000000000068
:100910007E000000000000000000003E000000001B
:100920000000000000000C00000000000007800034
:10093000FC000003C0000000078001FC000003C0B1
:10094000000000078001FC000003C00000000780D9
:1009500001E00000001E000000078001E000000030
:100960001E007FE3F79FF9FDE7787BDFC0FFF7FF0D
:10097000BFFDFDFF787BDFC0FFF7FFBFFDFDFF7808
:100980007BDFC0F0F787BC3DE1FF787BDE00F0F74E
:1009900087BC3DE1F0787BDE0000F787803DE1E039
:1009A000787BDE007FF7879FFDE1E0787BDE00FF4C
:1009B000F787BFFDE1E0787BDE00F0F787BC3DE123
:1009C000E0787BDE00F0F787BC3DE1E0787BDE007D
:1009D000F0F787BC3DE1E0787BDE00FFF7FFBFFD6D
:1009E000E1E07FFBDFC0FFF7FFBFFDE1E07FFBDF62
:1009F000C07CF3F39F3DE1E03E7BCFC000000000F0
:100A000000000000000000FFFFFFFFFFFFFFFFFFEF
:100A1000FFC0FFFFFFFFFD68DB111A31C0FFFFFFC2
:100A2000FFFD2B5AFB6AEFC0FFFFFFFFFD4B5B3B57
:100A30001A33C0FFFFFFFFFD6B5BDB6AFDC00000E8
:100A40000000250028002B000000000024002700E3
:100A50002A00040404040404040402020202020240
:100A60000303030303030102040810204080010272
:100A7000040810200102040810202200FF210000B9
:100A8000EE13431711241FBECFEFD8E0DEBFCDBF5A
:100A900011E0A0E0B1E0E0E7F1E302C005900D92C3
:100AA000A835B107D9F722E0A8E5B1E001C01D9251
:100AB000A636B207E1F715E0C1E4D5E004C02197FE
:100AC000FE010E947417C034D107C9F70E9449146F
:100AD0000C94AB180C94000090E0FC01EA59F54F1F
:100AE00024918E5A954FFC018491882399F090E0CF
:100AF000880F991FFC01E85BF54FA591B491FC01AB
:100B0000E25CF54F859194918FB7F894EC91E22BCC
:100B1000EC938FBF0895089508950895AF92BF9202
:100B2000CF92DF92EF92FF920F931F93CF93DF93B9
:100B30006C017B018B01040F151FEB015E01AE18E8
:100B4000BF08C017D10759F06991D601ED91FC910A
:100B50000190F081E02DC6010995892B79F7C50137
:100B6000DF91CF911F910F91FF90EF90DF90CF9089
:100B7000BF90AF90089590E0FC01E858FA4F24919F
:100B8000FC01EA59F54F3491FC01EE5AF54FE4911E
:100B9000EE23C9F0222339F0233001F1A8F42130EB
:100BA00019F1223029F1F0E0EE0FFF1FE25CF54F62
:100BB000A591B4918FB7F894EC91611126C030954E
:100BC0003E233C938FBF08952730A9F02830C9F009
:100BD000243049F7809180008F7D03C08091800090
:100BE0008F7780938000DFCF84B58F7784BDDBCF94
:100BF00084B58F7DFBCF8091B0008F778093B0005C
:100C0000D2CF8091B0008F7DF9CF3E2BDACF3FB7A6
:100C1000F8948091040290910502A0910602B0918F
:100C2000070226B5A89B05C02F3F19F00196A11D0C
:100C3000B11D3FBFBA2FA92F982F8827BC01CD0126
:100C4000620F711D811D911D42E0660F771F881F85
:100C5000991F4A95D1F708958F929F92AF92BF92B4
:100C6000CF92DF92EF92FF924B015C010E94070648
:100C70006B017C010E9407066C197D098E099F0992
:100C8000683E734081059105A8F321E0821A91081E
:100C9000A108B10888EEC80E83E0D81EE11CF11C43
:100CA00081149104A104B10429F7FF90EF90DF9023
:100CB000CF90BF90AF909F908F90089585ED8093D7
:100CC000BC008091BC0084FDFCCF10920F020895FF
:100CD0002091B801260F3327331F21323105ECF460
:100CE00020910F02FC0190E080E0243069F082E066
:100CF0000895A091B8012191AC0148565E4FA40F10
:100D0000B52FB11D2C930196861798F38091B801E9
:100D1000680F6093B80180E0089581E00895E09144
:100D2000110280911002E81730F4F0E0E858FE4F0D
:100D3000808190E008958FEF9FEF089590911102C8
:100D4000809110022FEF3FEF981748F4E92FF0E061
:100D5000E858FE4F208130E09F5F90931102C90157
:100D600008958091100290911102891B990B0895AA
:100D7000CF92DF92EF92FF920F931F93CF93DF9367
:100D80007C01CB018A0120911502222389F0EB011D
:100D90006B01C40ED51ECC15DD0569F06991D70134
:100DA000ED91FC910190F081E02DC7010995F3CF01
:100DB000642F0E946806C801DF91CF911F910F91A7
:100DC000FF90EF90DF90CF900895CF93DF931F9225
:100DD000CDB7DEB76983209115022223F9F0209167
:100DE0001202203258F021E030E0FC0133832283EC
:100DF00090E080E00F90DF91CF91089580911302F1
:100E0000E82FF0E0E85AFE4F998190838F5F80933E
:100E100013028093120281E090E0ECCF61E0CE01FA
:100E200001960E946806F7CF2091120281E02132DC
:100E300008F044C080910F028111FCCF8091140210
:100E400092E090930F0291E090930E029FEF9093A7
:100E5000DB011092FD012093FC01A8E5B1E0ECED6F
:100E6000F1E090E0291331C01092FE019091FE0153
:100E7000880F892B8093FE0180910D02813049F506
:100E800010920D028091FE018093BB008091BC0006
:100E900083FDF8CF85EC8093BC0080910F028230F7
:100EA000E1F38091DB018F3FB1F08091DB01803273
:100EB000A1F08091DB01803391F084E01092130265
:100EC000109212021092150208953D9131939F5F86
:100ED000C9CF85EEE0CF80E0F1CF82E0EFCF83E0B5
:100EE000EDCFEF92FF920F931F93CF93DF93EC011F
:100EF000EC80FD806E157F050CF070C057FF04C0BC
:100F0000240F351F50E040E08E819F81FA01E20FEF
:100F1000F31F8E179F071CF49C01241B350B121620
:100F200013060CF05BC0922F842F869586958695CC
:100F30008E9DD0018F9DB00D11246A0F7B1FAF8D48
:100F4000B8A1A60FB71F477049F188E0841B482F4E
:100F5000682F70E0FB01E059FA4FE491281708F080
:100F600063C0621B71092FEF30E002C035952795F1
:100F70006A95E2F7E2230130110539F0B0F1023051
:100F8000110561F58C91E82702C08C91E82BEC9358
:100F9000941720F12C813D81A20FB31FE92FE41B90
:100FA000E83078F00230110521F58E2F9C91909554
:100FB0009C932C813D81A20FB31F88508830B0F7DD
:100FC000E770EE2359F0F0E0E859FA4FE491013070
:100FD0001105F9F010F10230110519F1DF91CF91EF
:100FE0001F910F91FF90EF900895E0958C91E82369
:100FF000CECF81E00115110509F480E081959E2F87
:101000008C932C813D81A20FB31F98509830C0F76C
:10101000D7CF8C91E82BEC93E1CFE0958C91E8232E
:10102000FACF8C91E827F7CF0130110509F4ADCF45
:10103000E0F20230110509F4A5CFAE0DBF1DAECF11
:101040000F931F93CF93DF9377FF04C0260F371FB3
:1010500070E060E0DC011496CD91DC91FB01E20FC1
:10106000F31FCE17DF071CF49E01261B370B121649
:1010700013064CF5FA0157FD3796A3E0F595E79571
:10108000AA95E1F7EC9FD001ED9FB00DFC9FB00D4C
:1010900011246A0F7B1FDC015F96ED91FC91E60F36
:1010A000F71F4770552781E090E001C0880F4A95EF
:1010B000EAF7482F0130110559F0A8F02E0F3F1F15
:1010C00002301105E1F0DF91CF911F910F9108954A
:1010D0002E0F3F1FE217F307B1F38191DF01119744
:1010E000842B8C93F7CF80952E0F3F1FE217F307C9
:1010F00051F39191DF01119798239C93F7CFE21759
:10110000F30709F38191DF01119784278C93F7CFBF
:101110000F931F93FA01DC0156964C91569742307B
:10112000E9F04330A1F1413061F514964D915C91A5
:10113000DA01AE1BBF0BFD01E21BF30B77FD0BC009
:10114000DC0116964D915C916417750724F4AB0190
:10115000BF010E9420081F910F91089514964D9190
:101160005C91DA01A61BB70BBD0161507109DC016E
:1011700016964D915C91DA01AE1BBF0BFD01E21B8F
:10118000F30B77FDE8CFAF010E947107E4CF16960D
:101190004D915C91DA01A61BB70BBD01615071093D
:1011A000CDCF0F931F93FA01DC0156964C915697C1
:1011B0004230A9F0433091F1413019F514964D9128
:1011C0005C91DA01AE1BBF0BFD013197F7FD04C046
:1011D000AB01BF010E9471071F910F9108951496F2
:1011E0004D915C91DA01A61BB70BBD01DC0116968F
:1011F0004D915C91DA01AE1BBF0BFD013197621B73
:10120000730BF7FDE9CFDC0116964D915C91E41765
:10121000F50714F7AF010E942008DECF16964D9116
:101220005C91DA01A61BB70BBD01621B730BCECF1D
:10123000FC0177FD64C080859185681779070CF003
:101240005EC057FD5CC082859385481759070CF036
:1012500056C086898230B1F0833029F1813041F463
:1012600084819581841B950BAB01BC016150710990
:101270002130310509F108F443C02230310509F469
:1012800063C0089584819581DC01A61BB70BBD0165
:101290006150710986819781DC01A41BB50BAD01FA
:1012A00041505109E5CF86819781861B970BBA0182
:1012B000AC0141505109DCCFCA0157FD0796A3E0AC
:1012C00095958795AA95E1F7A481B5818A9F9001AC
:1012D0008B9F300D9A9F300D1124620F731F078C66
:1012E000F0A1E02DE60FF71F4770552721E030E011
:1012F00001C0220F4A95EAF78081822B80830895EE
:10130000CA0157FD079633E0959587953A95E1F721
:10131000A481B5818A9F90018B9F300D9A9F300DDB
:101320001124620F731F078CF0A1E02DE60FF71F49
:101330004770552781E090E001C0880F4A95EAF791
:10134000809590818923DACFCA0157FD079623E063
:10135000959587952A95E1F7A481B5818A9F90019B
:101360008B9F300D9A9F300D1124620F731F078CD5
:10137000F0A1E02DE60FF71F4770552721E030E080
:1013800001C0220F4A95EAF780818227B7CF0895DE
:101390008EBD00000DB407FEFDCF8EB50895FF92FF
:1013A0000F931F93CF93DF93F82ED92FC62F8091E1
:1013B0003F0290914002009709F452C020914302ED
:1013C00031E0309315022093140210921302109210
:1013D0001202DC01ED91FC910190F081E02D60E0C2
:1013E00009950F2D1D2FD1E0FF24F394C15080915A
:1013F0003F0290914002CF3F61F1D032C8F00E948D
:10140000140780913F029091400220914302F09294
:101410001502209314021092130210921202DC01A2
:10142000ED91FC910190F081E02D60E00995D1E013
:1014300080913F0290914002F8016491DC01ED91AE
:10144000FC910190F081E02D0995DF5F0F5F1F4F48
:10145000CDCFDF91CF911F910F91FF900C94140786
:10146000E0914F02F0915002908180915502809559
:10147000892380830F2D1D2FC15008F438C0F80137
:10148000849120913D0230913E02232B29F00E944D
:10149000C8090F5F1F4FF0CF28E030E040E8E0912F
:1014A0004B02F0914C0290915302582F5423D9F0E3
:1014B0005081952B9083E0914D02F0914E029081E6
:1014C00050915402952B9083E0914D02F0914E0281
:1014D0005081909154029095952390834695215088
:1014E0003109E9F6D6CF508190959523E3CFDF916E
:1014F000CF911F910F91FF9008951F93CF93DF938A
:10150000EC018D8D9E8D009721F1162F29A131E0E0
:1015100030931502209314021092130210921202BB
:10152000DC01ED91FC910190F081E02D60E00995E6
:101530008D8D9E8DDC01ED91FC910190F081E02D6F
:10154000612F09958D8D9E8DDF91CF911F910C9408
:101550001407ADA5BEA59C918BA9809589238C937A
:101560008B8D9C8D892B31F0862FDF91CF911F9130
:101570000C94C80928E030E080E8A9A5BAA599A98B
:10158000462F4823C1F04C91942B9C93ABA5BCA54E
:101590009C914AA9942B9C93ABA5BCA54C919AA96C
:1015A000909594239C9386952150310931F7DF91D2
:1015B000CF911F9108954C9190959423E6CF8CBDC7
:1015C0009DBD0895EF92FF920F931F93CF93DF93EA
:1015D00080913F0290914002892B09F493C02091A1
:1015E0005702309158024091590250915A0260E0DE
:1015F00074E284EF90E00E945217205131094109B2
:10160000510956954795379527952093B80065E081
:101610008AE79AE00E94CF0960912602615082E237
:1016200092E00E947D0A2091280230912902C9018E
:10163000079697FD079623E0959587952A95E1F7FC
:101640002091260230912702829F8001839F100DF6
:10165000929F100D1124C0914102D09142028091BD
:101660003F02909140020C0F1D1F009709F489C0A2
:101670002091430231E0309315022093140210921E
:10168000130210921202DC01ED91FC910190F081A5
:10169000E02D60E40995FF24F394EE24E394809117
:1016A0003F02909140020C171D0709F442C0BFE1B0
:1016B000BF15D0F40E94140780913F029091400220
:1016C00020914302E092150220931402109213021B
:1016D00010921202DC01ED91FC910190F081E02D5D
:1016E00060E40995FF24F39480913F0290914002B9
:1016F0006991DC01ED91FC910190F081E02D09955B
:10170000F394CDCF80913D0290913E02892B31F030
:1017100080916002909161020E94DF0AE091510283
:10172000F0915202908180915602809589238083A6
:101730006ECF0E94140780913F0290914002892B46
:1017400009F460C020915B0230915C0240915D021F
:1017500050915E0260E074E284EF90E00E945217C4
:1017600020513109410951095695479537952795DB
:101770002093B800DF91CF911F910F91FF90EF90D0
:101780000895E0914F02F0915002808190915502AE
:10179000892B80830C171D0771F2899120913D02DE
:1017A00030913E02232B19F00E94C809F3CF28E0A4
:1017B00030E040E8E0914B02F0914C0290915302EE
:1017C000582F5423D9F05081952B9083E0914D02EE
:1017D000F0914E02908150915402952B9083E091AC
:1017E0004D02F0914E0250819091540290959523B4
:1017F0009083469521503109E9F6CCCF50819095E0
:101800009523E3CFE0915102F091520280819091B3
:101810005602892B8083AECF1F93CF93DF93EC01C9
:10182000162F8D8D9E8D892BB1F12DA93EA94FA923
:1018300058AD60E074E284EF90E00E9452172051AE
:1018400031094109510956954795379527952093B8
:10185000B80066EA111167EACE010E947D0A8D8DFB
:101860009E8D892B41F129AD3AAD4BAD5CAD60E069
:1018700074E284EF90E00E9452172051310941092F
:10188000510956954795379527952093B800DF91D4
:10189000CF911F9108958B8D9C8D892B21F08EAD5A
:1018A0009FAD0E94DF0AEFA5F8A990818CA98095D1
:1018B00089238083CECFEFA5F8A980819CA9892BAD
:1018C0008083E5CF0895FC016370668B84819581E8
:1018D00026813781613039F0633029F09187808724
:1018E00033872287089531872087938782870895D9
:1018F0002F923F924F925F926F927F928F929F9220
:10190000AF92BF92CF92DF92EF92FF920F931F930D
:10191000CF93DF93CDB7DEB76A970FB6F894DEBFEB
:101920000FBECDBF9A8F898F7A8369834A01D22EE9
:1019300018870F833701BC2CDC0159962D913C91FF
:101940005A972115310509F015C118968D919C9172
:101950001997681779070CF0D7C11A968D919C9149
:10196000481759070CF0D0C14C2C512CB6E0CB9E37
:10197000600D711D11247C876B87161617060CF0FD
:10198000C3C1EA2DF0E0FA87E98793E0EE0FFF1F6D
:101990009A95E1F7F88BEF87CF01840F951F181602
:1019A00019060CF0B1C1A98DBA8D58968C91811190
:1019B00004C0BFEABD1508F4D394A98DBA8DED918A
:1019C000FC9111970284F385E02DCD010995B5E0D6
:1019D000DB9EC0011124E981FA81FC83EB83312C69
:1019E000212C9C0128593F4F388F2F8B4A2D50E0D6
:1019F0005E8B4D8BEF89F88DE20DF31D44919E8235
:101A00008D82D12CC12C69817A81620D731D7A8BF4
:101A1000698B842F90E09C8B8B8BE98DFA8DA08154
:101A2000B18140FF82C0F1E0BF126FC0AF126DC044
:101A30001C96ED91FC912F813885A4014C0D5D1D04
:101A400069897A89898D9A8D0995EB89FC89F59543
:101A5000E7954E2F5FEFC51AD50A6D817E818D897E
:101A60009E89680F791F7E836D8398E0C916D10423
:101A700081F6AFEF2A1A3A0AEB81FC81E40DF51DDD
:101A8000FC83EB83F5E02F16310409F0B3CF2F81EF
:101A9000388526153705B9F0A98DBA8DED91FC91E1
:101AA000B1E0BB1257C0AB1255C069817A816B5F40
:101AB0007F4F0088F189E02D830128E030E0A40108
:101AC000898D9A8D0995A98DBA8DED91FC9111970B
:101AD0000688F789E02DCD016A960FB6F894DEBF2F
:101AE0000FBECDBFDF91CF911F910F91FF90EF906F
:101AF000DF90CF90BF90AF909F908F907F906F902E
:101B00005F904F903F902F9009941E96ED91FC911D
:101B1000EF80F88409851A8592014D815E816B8181
:101B20007C81898D9A8D099590CF2F8138852615D6
:101B3000370509F48ACF31E0B31207C0A31205C0FC
:101B40001C96ED91FC91930178CF1E96ED91FC913E
:101B50007301E0CF6B857C85641975090684F78570
:101B6000E02D73010F8518899201A401898D9A8D4A
:101B70000995A9CFF90134969491329745915491E2
:101B8000D91AB7E0DB9E400D511D1124F9012591B2
:101B900034913C8B2B8BFA0125903490FA013296CC
:101BA000749031963491398B32966490319644908A
:101BB00041E04C1518F04A1508F07FC0662D062C40
:101BC000000C770B7C836B83842D042C000C990B09
:101BD0009E838D83A98DBA8DED91FC91119702841E
:101BE000F385E02DCD010995512CD12CC12CEA2D86
:101BF000F0E0FA87E9872B2D30E03C872B87A401A2
:101C0000440D511D47FC5A95588F4F8B69817A813D
:101C1000660D711D67FC7A957E876D877989C71679
:101C200008F051CF2C2D30E04D815E81420F531FC3
:101C3000A985BA854A9FC0014B9F900D5A9F900D70
:101C40001124FC01E80DF91DF88BEF87852D612C1F
:101C50004F89588D420F531F5E8B4D8B671408F0D0
:101C600050C044244394480E877041F4C10101964A
:101C7000EB89FC89E20DF31DD4901C01D7FE19C03D
:101C8000A98DBA8DED91FC91662D70E0B1E0BB128B
:101C900019C0AB1217C02D853E85620F731F0484D7
:101CA000F585E02D2F8138854D895E89898D9A8D46
:101CB0000995DD0C6394842DD1CF1E821D821C8278
:101CC0001B8288CF4B815C81640F751FAB85BC85FF
:101CD0006A9FC0016B9F900D7A9F900D11246981BE
:101CE0007A81680F791F0684F785E02DEF80F884EC
:101CF00009851A859D014F855889898D9A8D099589
:101D0000D8CF570CC3948ACF6A960FB6F894DEBF2B
:101D10000FBECDBFDF91CF911F910F91FF90EF903C
:101D2000DF90CF90BF90AF909F908F907F906F90FB
:101D30005F904F903F902F9008958F929F92AF9217
:101D4000CF92EF92FF920F931F93CF93DF93EC010B
:101D5000262F898D9A8D009709F051C06A30D1F4F1
:101D60001D861C868D8948E0849F900111248E85F4
:101D70009F85820F931F9F878E8781E090E0DF9180
:101D8000CF911F910F91FF90EF90CF90AF909F90C8
:101D90008F9008956D3089F3CC88AD888F89882322
:101DA000C1F08C859D8536E0C39E800D911D112468
:101DB000488559854817590764F44E855F851D8607
:101DC0001C8638E0A39EC0011124840F951F9F87B5
:101DD0008E87EA88FB88088919894E855F856C851E
:101DE0007D85CE010E94780C2C898C859D8546E0EE
:101DF000249F800D911D11249D878C87BECF6A3052
:101E000069F41D861C86FC013696E4912D898E8529
:101E10009F85E29F800D911D1124ADCF6D3009F497
:101E2000ACCFFC0134963491631708F4A6CF3196F9
:101E3000E491E61708F4A1CFFC01329685909490C6
:101E4000462F431B342F47E0349F800C911C1124F4
:101E5000F401329634913196E4913323A9F1EE23C3
:101E600099F1CC88F4013596E491AD884F894423EB
:101E700001F10E2E000CFF0BE30FF11DCE9EA00111
:101E8000CF9E500D11246C857D85460F571F6885A8
:101E90007985641775076CF44E855F851D861C86F1
:101EA000FC013696E491AE9E400D511D11245F87D2
:101EB0004E87EA88FB88088919894E855F856C857D
:101EC0007D85CE010E94780CF4013496E4912C8932
:101ED0008C859D85E29F800D911D11248DCF6F9281
:101EE0007F928F929F92AF92BF92CF92DF92EF92AA
:101EF000FF920F931F93CF93DF93EC016B015A0175
:101F000039014801E881F9810284F385E02D0995C2
:101F1000E881F9810288F389E02D87019301A50109
:101F2000B601CE010995A501480D591D4150510931
:101F3000E881F9810288F389E02D9301B601CE0191
:101F40000995E881F9810088F189E02D9401A501C6
:101F5000B601CE010995C60CD71CB60161507109B6
:101F6000E881F9810088F189E02D9401A501CE0175
:101F70000995E881F9810688F789E02DCE01DF9186
:101F8000CF911F910F91FF90EF90DF90CF90BF9076
:101F9000AF909F908F907F906F9009946F927F92F7
:101FA0008F929F92AF92BF92CF92DF92EF92FF9269
:101FB0000F931F93CF93DF935C01EB016A014901FB
:101FC00038018701DC01ED91FC916217730719F567
:101FD000641675062CF0962D872D3A01C92ED82E41
:101FE0009601261937092F5F3F4F048CF58DE02DA0
:101FF000A301BE01C5010995DF91CF911F910F91FA
:10200000FF90EF90DF90CF90BF90AF909F908F9018
:102010007F906F9008954615570591F4261737075E
:1020200024F0892D4B01C22FD82F9E012819390980
:102030002F5F3F4F068CF78DE02DA601B401DACF5C
:102040000284F385E02D0995D501ED91FC9104887A
:10205000F589E02D83019401A601BE01C501099512
:10206000D501ED91FC910688F789E02DC501DF913E
:10207000CF911F910F91FF90EF90DF90CF90BF9085
:10208000AF909F908F907F906F900994EF92FF9206
:102090000F931F93DC011A960D911C911B971896B4
:1020A0002D913C911997ED91FC9100A0F1A1E02DAB
:1020B0007B0150E040E070E060E009951F910F91D6
:1020C000FF90EF9008954F925F926F927F928F9260
:1020D0009F92AF92BF92CF92DF92EF92FF920F93B7
:1020E0001F93CF93DF936C012B015A0139014801F3
:1020F000DC01ED91FC910284F385E02D0995E2016C
:10210000640C751CD601ED91FC91C615D7055CF4E5
:102110000088F189E02D87019401A501BE01C60167
:1021200009952196EFCF0688F789E02DC601DF914A
:10213000CF911F910F91FF90EF90DF90CF90BF90C4
:10214000AF909F908F907F906F905F904F90099489
:102150008F929F92AF92BF92CF92DF92EF92FF92B7
:102160000F931F93CF93DF93EC015B014A01690149
:10217000E881F9810284F385E02D099595012C0D04
:102180003D1D21503109E881F9810488F589E02D50
:1021900078018401A401B501CE010995E881F98196
:1021A0000688F789E02DCE01DF91CF911F910F9125
:1021B000FF90EF90DF90CF90BF90AF909F908F9067
:1021C00009948F929F92AF92BF92CF92DF92EF923B
:1021D000FF920F931F93CF93DF93EC015B014A01B2
:1021E00069017801E881F9810284F385E02D099580
:1021F000C80CD91C860101501109E881F9810488B5
:10220000F589E02D9501A401B501CE010995E8817C
:10221000F9810688F789E02DCE01DF91CF911F91DA
:102220000F91FF90EF90DF90CF90BF90AF909F9075
:102230008F900994EF92FF920F931F93DC01ED9121
:10224000FC9100A0F1A1E02D09951F910F91FF9045
:10225000EF9008950F931F93DC01ED91FC91068C94
:10226000F78DE02D09951F910F9108950F931F93FE
:10227000DC01ED91FC91048CF58DE02D09951F9109
:102280000F910895DC01ED91FC910084F185E02D22
:1022900009943F924F925F926F927F928F929F929A
:1022A000AF92BF92CF92DF92EF92FF920F931F9364
:1022B000CF93DF935C017B014A016901390187E01B
:1022C000680E711C93E0759467949A95E1F72B0161
:1022D000400E511E10E000E0312CD0E0C0E0CE01F5
:1022E00087709927330C892B59F4FE0183E0F5950B
:1022F000E7958A95E1F7E00FF11FE80DF91D34909D
:1023000037FE0AC021E030E0A701B5016C0F7D1F48
:1023100082E292E00E9442112196CC16DD06F9F687
:102320008FEFE81AF80A060D171DE414F504A9F654
:10233000DF91CF911F910F91FF90EF90DF90CF90A1
:10234000BF90AF909F908F907F906F905F904F90D5
:102350003F9008952F923F924F925F926F927F929B
:102360008F929F92AF92BF92CF92DF92EF92FF92A5
:102370000F931F93CF93DF9300D000D000D0CDB741
:10238000DEB73C016A013E832D83FC82EB8258015B
:10239000A41AB50AB7FE03C0B194A194B1088D8008
:1023A0009E80861A970A97FE03C0919481949108A3
:1023B0008A149B045CF0902F812F0D811E819D83D8
:1023C0008E839C2D8D2D6B01692F782F0C151D058B
:1023D0005CF09D818E817E836D83692F782F902F95
:1023E000812F8601C92ED82E1601201A310A2B0101
:1023F0002D813E81421A530A57FE03C051944194E5
:102400005108710137FE03C03FEFE31AF30AF59458
:10241000E7948D819E81861797075CF5A1E0B0E077
:10242000BA83A983C016D1064CF1D301ED91FC917A
:102430000484F585E02D2B813C81A8016D817E818E
:102440008A149B041CF04D815E81B801C30109957B
:10245000E418F508F7FE0AC02D813E8189819A8132
:10246000280F391F3E832D83E20CF31C0F5F1F4F93
:10247000D9CF2FEF3FEF3A832983D4CF26960FB6DB
:10248000F894DEBF0FBECDBFDF91CF911F910F91AA
:10249000FF90EF90DF90CF90BF90AF909F908F9084
:1024A0007F906F905F904F903F902F900895089588
:1024B00090E080E008952091280230912902C9011E
:1024C000079697FD079623E0959587952A95E1F75E
:1024D0002091260230912702829FA001839F500DF8
:1024E000929F500D112470E060E080914102909124
:1024F00042020C94A41842E050E064E471E082E2ED
:1025000092E00C948E050E949F181F920F920FB6B6
:102510000F9211242F933F938F939F93AF93BF9369
:102520008091000290910102A0910202B0910302F9
:102530003091FF0123E0230F2D3758F50196A11D9F
:10254000B11D2093FF018093000290930102A0939C
:102550000202B09303028091040290910502A091BF
:102560000602B09107020196A11DB11D80930402DD
:1025700090930502A0930602B0930702BF91AF911A
:102580009F918F913F912F910F900FBE0F901F90B1
:10259000189526E8230F0296A11DB11DD2CF1F92D8
:1025A0000F920FB60F9211242F933F934F935F9387
:1025B0006F937F938F939F93AF93BF93EF93FF930B
:1025C0008091B900887F803609F44AC0F0F58832DE
:1025D00009F4A7C018F5803109F49BC0B8F488232A
:1025E00009F4F9C0883009F494C0FF91EF91BF91CC
:1025F000AF919F918F917F916F915F914F913F919B
:102600002F910F900FBE0F901F901895883109F4ED
:1026100088C0803251F78093DB0114C0803409F404
:102620009DC040F48033B9F38833F9F68093DB0121
:1026300085ECB0C0803509F485C0883509F496C0B2
:10264000883499F60E945E06D0CF883909F48CC090
:1026500038F5883729F050F4883611F0803729F69C
:1026600083E080930F021092DA0157C0883809F492
:102670007BC0803919F0803809F0B7CF8091DA013A
:10268000803208F071C0E091DA0181E08E0F809312
:10269000DA018091BB00F0E0E654FE4F80833DC03C
:1026A000803B39F0E0F4803A09F479C0883A09F0C7
:1026B0009CCF84E080930F021092B9011092B80170
:1026C000E0910B02F0910C0209958091B801811103
:1026D0000FC081E08093B8011092980109C0803C3E
:1026E00009F4A6CF883C09F4A3CF883B09F07DCF3D
:1026F000E091B90181E08E0F8093B901F0E0E856D6
:10270000FE4F80818093BB009091B9018091B80108
:1027100029C08091FE018093BB0085EC8093BC00B2
:1027200064CF9091FD018091FC01981758F5E091DC
:10273000FD0181E08E0F8093FD01F0E0E452FE4F39
:102740008081E9CFE091FD0181E08E0F8093FD0152
:102750008091BB00F0E0E452FE4F80839091FD0138
:102760008091FC019817C8F285E8D8CFE091FD016F
:1027700081E08E0F8093FD018091BB00F0E0E45278
:10278000FE4F808380910E0281115CCF81E08093A7
:102790000D0284EA8093BC0010920F0226CF85ECD4
:1027A0008093BC0010920F028091DA01803230F4E5
:1027B000E091DA01F0E0E654FE4F10826091DA0118
:1027C00070E0E0910902F0910A028AEB91E009952C
:1027D0001092DA010ACF1092DB0134CFA6E1B2E009
:1027E00013961C921E92129748EE53E060E070E040
:1027F00014964D935D936D937C9317978AE091E0C7
:1028000011969C938E93E2E2F2E01382128220E80A
:1028100030E03583248380E290E09783868331879C
:10282000208793878287168A1586148617861686D0
:1028300081E0858B848B2FEF3FEF338B228B318BA5
:10284000208B878B108E128E118E8CE191E09183FC
:102850008083148E138EB68FA58F10A2178E8FEFE4
:1028600084A385A386A387A380A780E89AE1A6E036
:10287000B0E085AB96ABA7ABB0AF80EA96E8A1E03D
:10288000B0E081AF92AFA3AFB4AF80E586AF17AE33
:102890000895789484B5826084BD84B5816084BDD8
:1028A00085B5826085BD85B5816085BD80916E00EE
:1028B000816080936E00109281008091810082601F
:1028C000809381008091810081608093810080915C
:1028D00080008160809380008091B100846080934B
:1028E000B1008091B00081608093B00080917A0047
:1028F000846080937A0080917A00826080937A006D
:1029000080917A00816080937A0080917A0080685B
:1029100080937A001092C10080914102909142020E
:10292000892B11F10E945B1220912802309129021B
:102930008091260290912702213231050CF090C03F
:10294000B9016052710977FF02C06F5F7F4F7595C3
:1029500067958357910997FD019600E210E023E700
:1029600030E04EE955E08FC02091280230912902D5
:10297000C901079697FD0796B3E095958795BA9597
:10298000E1F72091260230912702AC01429FC0015D
:10299000439F900D529F900D11240E947A1790939F
:1029A000420280934102892B09F0BCCF0E945B1246
:1029B00010922F0210922E021092310210923002C9
:1029C00081E090E09093350280933402909333023B
:1029D000809332020E94E20AC2E005E110E0D1E0F9
:1029E00080E0E82E80E0F82E0E945B1210922F0209
:1029F00010922E021092310210923002C0933602D1
:102A0000C09337024BE050E067E471E082E292E06D
:102A10000E948E050E947B1210922F0210922E02AD
:102A20001093310200933002D0933602D0933702D4
:102A300044E050E063E571E082E292E00E948E059E
:102A40000E947B120E94E20A6AE070E080E090E05F
:102A50000E942C06E114F10439F20E940000C4CF58
:102A6000B9016054710977FF02C06F5F7F4F7595A0
:102A700067958255910997FD019600E410E022E5E3
:102A800030E04EE757E0959587950E9449118CE319
:102A90008093440280913F0290914002892B09F477
:102AA00004C18091280290912902809709F4FBC00B
:102AB0008DE3809343021092110210921002109243
:102AC00013021092120210920F0281E080930E0204
:102AD00010920D0261E082E10E94BB0561E083E19A
:102AE0000E94BB058091B9008E7F8093B9008091D0
:102AF000B9008D7F8093B90088E48093B80085E4A5
:102B00008093BC008CE895E090930C0280930B02BC
:102B10008DE895E090930A028093090280914A0221
:102B200087FD1DC00E946C0561E080914A020E94F1
:102B3000BB0561E070E080E090E00E942C0660E060
:102B400080914A020E94BB056AE070E080E090E05C
:102B50000E942C0661E080914A020E94BB05809190
:102B60003F0290914002892B09F456C120915702EF
:102B7000309158024091590250915A0260E074E23B
:102B800084EF90E00E945217205131094109510908
:102B900056954795379527952093B80064E08AE9C4
:102BA00095E00E94CF0960912802615082E292E094
:102BB0000E947D0A64E086E995E00E94CF09809139
:102BC000440264E1813009F460E182E292E00E9413
:102BD0007D0A64E082E995E00E94CF098FE8809346
:102BE0005F0280912602909127028038910509F0BA
:102BF0002CC180912802909129028034910509F01E
:102C000034C180914402813009F41DC18FEC80935E
:102C10005F02C2E16AED82E292E00E947D0A6C2FBF
:102C200082E292E00E947D0A61E882E292E00E94E4
:102C30007D0A60915F0282E292E00E947D0A69ED66
:102C400082E292E00E947D0A8091440261EF81302D
:102C500009F462E282E292E00E947D0A66E08CE87A
:102C600095E00E94CF0980913F0290914002892B0C
:102C700009F4FFC020915B0230915C0240915D023B
:102C800050915E0260E074E284EF90E00E9452177F
:102C90002051310941095109569547953795279596
:102CA0002093B80083CE8CE304CF809148020E9429
:102CB0006C05809149020E946C0580914802082EA3
:102CC000000C990BFC01EE5AF54FE491F0E0EE0F89
:102CD000FF1FE25CF54F2591349130935002209311
:102CE0004F02FC01EA59F54FE491E09355028091BF
:102CF0004902082E000C990BFC01EE5AF54FE491A5
:102D0000F0E0EE0FFF1FE25CF54FA591B491B09398
:102D10005202A0935102FC01EA59F54FE491E0936D
:102D200056028C91E82BEC9380913D0290913E02EB
:102D3000892B89F1CFB7F89480910802811124C0C2
:102D4000ECE5FAE08491E0E7FAE09491E82FF0E016
:102D5000EE0FFF1FE85BF54FA591B491EC91E923CD
:102D600021F461E08AE00E94BB058AE00E946C05C4
:102D70008CB580618CBD8CB580648CBD8DE00E946B
:102D80006C058BE00E946C05809108028F5F809338
:102D90000802CFBFC3CE809146020E946C0580918D
:102DA00047020E946C0580914602082E000C990B88
:102DB000FC01EE5AF54FE491F0E0EE0FFF1FE25CEC
:102DC000F54F2591349130934C0220934B02FC0136
:102DD000EA59F54FE491E093530280914702082E9F
:102DE000000C990BFC01EE5AF54FE491F0E0EE0F68
:102DF000FF1FE25CF54FA591B491B0934E02A093F2
:102E00004D02FC01EA59F54FE491E09354028C9194
:102E1000E095E823EC9382CE80913D0290913E02B2
:102E2000892B31F080916002909161020E94DF0A4B
:102E3000E0915102F091520290818091560280956A
:102E400089238083ABCE8FE9E2CE8036910569F489
:102E50008091280290912902409739F48091440290
:102E6000813029F08FEA80935F02C2E0D3CE80E107
:102E7000FACFE0915102F091520280819091560276
:102E8000892B808393CD8CE191E0909323028093F2
:102E900022028091410290914202009711F00C941D
:102EA00016180895A1E21A2EAA1BBB1BFD010DC026
:102EB000AA1FBB1FEE1FFF1FA217B307E407F507EA
:102EC00020F0A21BB30BE40BF50B661F771F881FC6
:102ED000991F1A9469F760957095809590959B015C
:102EE000AC01BD01CF010895EE0FFF1F0590F491D5
:102EF000E02D09940F931F93CF93DF9382309105B8
:102F000010F482E090E0E0916402F091650230E01C
:102F100020E0B0E0A0E0309799F42115310509F4E4
:102F20004AC0281B390B24303105D8F58A819B8192
:102F30006115710589F1FB0193838283FE0111C044
:102F4000408151810281138148175907E0F04817E9
:102F5000590799F4109761F012960C9312971396F3
:102F60001C933296CF01DF91CF911F910F9108955D
:102F70000093640210936502F4CF2115310551F0DE
:102F80004217530738F0A901DB019A01BD01DF01A7
:102F9000F801C1CFEF01F9CF9093650280936402ED
:102FA000CDCFFE01E20FF31F81939193225031099F
:102FB00039832883D7CF2091620230916302232B7B
:102FC00041F4209102013091030130936302209378
:102FD000620220910001309101012115310541F477
:102FE0002DB73EB74091040150910501241B350BCC
:102FF000E0916202F0916302E217F307A0F42E1B46
:103000003F0B2817390778F0AC014E5F5F4F24174C
:10301000350748F04E0F5F1F5093630240936202E2
:10302000819391939FCFF0E0E0E09CCFCF93DF932B
:103030000097E9F0FC01329713821282A09164029A
:10304000B0916502ED0130E020E01097A1F42081FD
:103050003181820F931F2091620230916302281701
:10306000390709F061C0F0936302E0936202DF91D7
:10307000CF910895EA01CE17DF07E8F54A815B8119
:103080009E0141155105B1F7E901FB83EA8349919E
:103090005991C40FD51FEC17FD0761F48081918110
:1030A0000296840F951FE901998388838281938119
:1030B0009B838A83F0E0E0E012968D919C911397B8
:1030C0000097B9F52D913C911197CD010296820F91
:1030D000931F20916202309163022817390739F655
:1030E000309751F51092650210926402B09363021A
:1030F000A0936202BCCFD383C28340815181840FED
:10310000951FC817D90761F44E5F5F4F8881998179
:10311000480F591F518340838A819B819383828307
:103120002115310509F0B0CFF0936502E0936402F8
:103130009ECFFD01DC01C0CF13821282D7CF81E088
:1031400090E0F8940C94AB18DC0101C06D934150F1
:103150005040E0F7089515E0C1E4D5E004C0FE0159
:103160000E9474172196C234D107C9F7F894FFCF93
:1031700000006602800000000000E506B806581254
:103180008B05B1069E068F06000000009D0E8E0581
:103190005812571218098B0542111A1136112A11AB
:1031A000AA118B05630C0C0C8808D108631046101B
:1031B000CE0F6F0F0D0A0044697374616E63652052
:0831C0003A20003134323700DF
:107E0000112484B714BE81FFF0D085E080938100F7
:107E100082E08093C00088E18093C10086E0809377
:107E2000C20080E18093C4008EE0C9D0259A86E02C
:107E300020E33CEF91E0309385002093840096BBD3
:107E4000B09BFECF1D9AA8958150A9F7CC24DD24C4
:107E500088248394B5E0AB2EA1E19A2EF3E0BF2EE7
:107E6000A2D0813461F49FD0082FAFD0023811F036
:107E7000013811F484E001C083E08DD089C08234E0
:107E800011F484E103C0853419F485E0A6D080C0E4
:107E9000853579F488D0E82EFF2485D0082F10E0AE
:107EA000102F00270E291F29000F111F8ED06801E7
:107EB0006FC0863521F484E090D080E0DECF843638
:107EC00009F040C070D06FD0082F6DD080E0C81688
:107ED00080E7D80618F4F601B7BEE895C0E0D1E017
:107EE00062D089930C17E1F7F0E0CF16F0E7DF06D8
:107EF00018F0F601B7BEE89568D007B600FCFDCFD4
:107F0000A601A0E0B1E02C9130E011968C91119780
:107F100090E0982F8827822B932B1296FA010C0160
:107F200087BEE89511244E5F5F4FF1E0A038BF0790
:107F300051F7F601A7BEE89507B600FCFDCF97BE46
:107F4000E89526C08437B1F42ED02DD0F82E2BD052
:107F50003CD0F601EF2C8F010F5F1F4F84911BD097
:107F6000EA94F801C1F70894C11CD11CFA94CF0C13
:107F7000D11C0EC0853739F428D08EE10CD085E9AC
:107F80000AD08FE07ACF813511F488E018D01DD067
:107F900080E101D065CF982F8091C00085FFFCCF94
:107FA0009093C60008958091C00087FFFCCF809118
:107FB000C00084FD01C0A8958091C6000895E0E648
:107FC000F0E098E1908380830895EDDF803219F02E
:107FD00088E0F5DFFFCF84E1DECF1F93182FE3DFCA
:107FE0001150E9F7F2DF1F91089580E0E8DFEE27F6
:047FF000FF270994CA
:027FFE00040479
:0400000300007E007B
:00000001FF
